{
  "contractName": "UniswapV2Router03",
  "abi": [
    {
      "inputs": [
        {
          "internalType": "address",
          "name": "_factory",
          "type": "address"
        },
        {
          "internalType": "address",
          "name": "_WETH",
          "type": "address"
        }
      ],
      "stateMutability": "nonpayable",
      "type": "constructor"
    },
    {
      "inputs": [],
      "name": "WETH",
      "outputs": [
        {
          "internalType": "address",
          "name": "",
          "type": "address"
        }
      ],
      "stateMutability": "view",
      "type": "function",
      "constant": true
    },
    {
      "inputs": [],
      "name": "factory",
      "outputs": [
        {
          "internalType": "address",
          "name": "",
          "type": "address"
        }
      ],
      "stateMutability": "view",
      "type": "function",
      "constant": true
    },
    {
      "stateMutability": "payable",
      "type": "receive",
      "payable": true
    },
    {
      "inputs": [
        {
          "internalType": "address",
          "name": "tokenA",
          "type": "address"
        },
        {
          "internalType": "address",
          "name": "tokenB",
          "type": "address"
        },
        {
          "internalType": "uint256",
          "name": "amountADesired",
          "type": "uint256"
        },
        {
          "internalType": "uint256",
          "name": "amountBDesired",
          "type": "uint256"
        },
        {
          "internalType": "uint256",
          "name": "amountAMin",
          "type": "uint256"
        },
        {
          "internalType": "uint256",
          "name": "amountBMin",
          "type": "uint256"
        },
        {
          "internalType": "address",
          "name": "to",
          "type": "address"
        },
        {
          "internalType": "uint256",
          "name": "deadline",
          "type": "uint256"
        }
      ],
      "name": "addLiquidity",
      "outputs": [
        {
          "internalType": "uint256",
          "name": "amountA",
          "type": "uint256"
        },
        {
          "internalType": "uint256",
          "name": "amountB",
          "type": "uint256"
        },
        {
          "internalType": "uint256",
          "name": "liquidity",
          "type": "uint256"
        }
      ],
      "stateMutability": "nonpayable",
      "type": "function"
    },
    {
      "inputs": [
        {
          "internalType": "address",
          "name": "token",
          "type": "address"
        },
        {
          "internalType": "uint256",
          "name": "amountTokenDesired",
          "type": "uint256"
        },
        {
          "internalType": "uint256",
          "name": "amountTokenMin",
          "type": "uint256"
        },
        {
          "internalType": "uint256",
          "name": "amountETHMin",
          "type": "uint256"
        },
        {
          "internalType": "address",
          "name": "to",
          "type": "address"
        },
        {
          "internalType": "uint256",
          "name": "deadline",
          "type": "uint256"
        }
      ],
      "name": "addLiquidityETH",
      "outputs": [
        {
          "internalType": "uint256",
          "name": "amountToken",
          "type": "uint256"
        },
        {
          "internalType": "uint256",
          "name": "amountETH",
          "type": "uint256"
        },
        {
          "internalType": "uint256",
          "name": "liquidity",
          "type": "uint256"
        }
      ],
      "stateMutability": "payable",
      "type": "function",
      "payable": true
    },
    {
      "inputs": [
        {
          "internalType": "address",
          "name": "tokenA",
          "type": "address"
        },
        {
          "internalType": "address",
          "name": "tokenB",
          "type": "address"
        },
        {
          "internalType": "uint256",
          "name": "amountADesired",
          "type": "uint256"
        },
        {
          "internalType": "uint256",
          "name": "amountBDesired",
          "type": "uint256"
        },
        {
          "internalType": "uint256",
          "name": "amountAMin",
          "type": "uint256"
        },
        {
          "internalType": "uint256",
          "name": "amountBMin",
          "type": "uint256"
        },
        {
          "internalType": "address",
          "name": "to",
          "type": "address"
        },
        {
          "internalType": "bytes32",
          "name": "referrer",
          "type": "bytes32"
        },
        {
          "internalType": "uint256",
          "name": "deadline",
          "type": "uint256"
        }
      ],
      "name": "addLiquidityWithReferrer",
      "outputs": [
        {
          "internalType": "uint256",
          "name": "amountA",
          "type": "uint256"
        },
        {
          "internalType": "uint256",
          "name": "amountB",
          "type": "uint256"
        },
        {
          "internalType": "uint256",
          "name": "liquidity",
          "type": "uint256"
        }
      ],
      "stateMutability": "nonpayable",
      "type": "function"
    },
    {
      "inputs": [
        {
          "internalType": "address",
          "name": "token",
          "type": "address"
        },
        {
          "internalType": "uint256",
          "name": "amountTokenDesired",
          "type": "uint256"
        },
        {
          "internalType": "uint256",
          "name": "amountTokenMin",
          "type": "uint256"
        },
        {
          "internalType": "uint256",
          "name": "amountETHMin",
          "type": "uint256"
        },
        {
          "internalType": "address",
          "name": "to",
          "type": "address"
        },
        {
          "internalType": "bytes32",
          "name": "referrer",
          "type": "bytes32"
        },
        {
          "internalType": "uint256",
          "name": "deadline",
          "type": "uint256"
        }
      ],
      "name": "addLiquidityETHWithReferrer",
      "outputs": [
        {
          "internalType": "uint256",
          "name": "amountToken",
          "type": "uint256"
        },
        {
          "internalType": "uint256",
          "name": "amountETH",
          "type": "uint256"
        },
        {
          "internalType": "uint256",
          "name": "liquidity",
          "type": "uint256"
        }
      ],
      "stateMutability": "payable",
      "type": "function",
      "payable": true
    },
    {
      "inputs": [
        {
          "internalType": "address",
          "name": "tokenA",
          "type": "address"
        },
        {
          "internalType": "address",
          "name": "tokenB",
          "type": "address"
        },
        {
          "internalType": "uint256",
          "name": "liquidity",
          "type": "uint256"
        },
        {
          "internalType": "uint256",
          "name": "amountAMin",
          "type": "uint256"
        },
        {
          "internalType": "uint256",
          "name": "amountBMin",
          "type": "uint256"
        },
        {
          "internalType": "address",
          "name": "to",
          "type": "address"
        },
        {
          "internalType": "uint256",
          "name": "deadline",
          "type": "uint256"
        }
      ],
      "name": "removeLiquidity",
      "outputs": [
        {
          "internalType": "uint256",
          "name": "amountA",
          "type": "uint256"
        },
        {
          "internalType": "uint256",
          "name": "amountB",
          "type": "uint256"
        }
      ],
      "stateMutability": "nonpayable",
      "type": "function"
    },
    {
      "inputs": [
        {
          "internalType": "address",
          "name": "token",
          "type": "address"
        },
        {
          "internalType": "uint256",
          "name": "liquidity",
          "type": "uint256"
        },
        {
          "internalType": "uint256",
          "name": "amountTokenMin",
          "type": "uint256"
        },
        {
          "internalType": "uint256",
          "name": "amountETHMin",
          "type": "uint256"
        },
        {
          "internalType": "address",
          "name": "to",
          "type": "address"
        },
        {
          "internalType": "uint256",
          "name": "deadline",
          "type": "uint256"
        }
      ],
      "name": "removeLiquidityETH",
      "outputs": [
        {
          "internalType": "uint256",
          "name": "amountToken",
          "type": "uint256"
        },
        {
          "internalType": "uint256",
          "name": "amountETH",
          "type": "uint256"
        }
      ],
      "stateMutability": "nonpayable",
      "type": "function"
    },
    {
      "inputs": [
        {
          "internalType": "address",
          "name": "tokenA",
          "type": "address"
        },
        {
          "internalType": "address",
          "name": "tokenB",
          "type": "address"
        },
        {
          "internalType": "uint256",
          "name": "liquidity",
          "type": "uint256"
        },
        {
          "internalType": "uint256",
          "name": "amountAMin",
          "type": "uint256"
        },
        {
          "internalType": "uint256",
          "name": "amountBMin",
          "type": "uint256"
        },
        {
          "internalType": "address",
          "name": "to",
          "type": "address"
        },
        {
          "internalType": "uint256",
          "name": "deadline",
          "type": "uint256"
        },
        {
          "internalType": "bool",
          "name": "approveMax",
          "type": "bool"
        },
        {
          "internalType": "uint8",
          "name": "v",
          "type": "uint8"
        },
        {
          "internalType": "bytes32",
          "name": "r",
          "type": "bytes32"
        },
        {
          "internalType": "bytes32",
          "name": "s",
          "type": "bytes32"
        }
      ],
      "name": "removeLiquidityWithPermit",
      "outputs": [
        {
          "internalType": "uint256",
          "name": "amountA",
          "type": "uint256"
        },
        {
          "internalType": "uint256",
          "name": "amountB",
          "type": "uint256"
        }
      ],
      "stateMutability": "nonpayable",
      "type": "function"
    },
    {
      "inputs": [
        {
          "internalType": "address",
          "name": "token",
          "type": "address"
        },
        {
          "internalType": "uint256",
          "name": "liquidity",
          "type": "uint256"
        },
        {
          "internalType": "uint256",
          "name": "amountTokenMin",
          "type": "uint256"
        },
        {
          "internalType": "uint256",
          "name": "amountETHMin",
          "type": "uint256"
        },
        {
          "internalType": "address",
          "name": "to",
          "type": "address"
        },
        {
          "internalType": "uint256",
          "name": "deadline",
          "type": "uint256"
        },
        {
          "internalType": "bool",
          "name": "approveMax",
          "type": "bool"
        },
        {
          "internalType": "uint8",
          "name": "v",
          "type": "uint8"
        },
        {
          "internalType": "bytes32",
          "name": "r",
          "type": "bytes32"
        },
        {
          "internalType": "bytes32",
          "name": "s",
          "type": "bytes32"
        }
      ],
      "name": "removeLiquidityETHWithPermit",
      "outputs": [
        {
          "internalType": "uint256",
          "name": "amountToken",
          "type": "uint256"
        },
        {
          "internalType": "uint256",
          "name": "amountETH",
          "type": "uint256"
        }
      ],
      "stateMutability": "nonpayable",
      "type": "function"
    },
    {
      "inputs": [
        {
          "internalType": "address",
          "name": "token",
          "type": "address"
        },
        {
          "internalType": "uint256",
          "name": "liquidity",
          "type": "uint256"
        },
        {
          "internalType": "uint256",
          "name": "amountTokenMin",
          "type": "uint256"
        },
        {
          "internalType": "uint256",
          "name": "amountETHMin",
          "type": "uint256"
        },
        {
          "internalType": "address",
          "name": "to",
          "type": "address"
        },
        {
          "internalType": "uint256",
          "name": "deadline",
          "type": "uint256"
        }
      ],
      "name": "removeLiquidityETHSupportingFeeOnTransferTokens",
      "outputs": [
        {
          "internalType": "uint256",
          "name": "amountETH",
          "type": "uint256"
        }
      ],
      "stateMutability": "nonpayable",
      "type": "function"
    },
    {
      "inputs": [
        {
          "internalType": "address",
          "name": "token",
          "type": "address"
        },
        {
          "internalType": "uint256",
          "name": "liquidity",
          "type": "uint256"
        },
        {
          "internalType": "uint256",
          "name": "amountTokenMin",
          "type": "uint256"
        },
        {
          "internalType": "uint256",
          "name": "amountETHMin",
          "type": "uint256"
        },
        {
          "internalType": "address",
          "name": "to",
          "type": "address"
        },
        {
          "internalType": "uint256",
          "name": "deadline",
          "type": "uint256"
        },
        {
          "internalType": "bool",
          "name": "approveMax",
          "type": "bool"
        },
        {
          "internalType": "uint8",
          "name": "v",
          "type": "uint8"
        },
        {
          "internalType": "bytes32",
          "name": "r",
          "type": "bytes32"
        },
        {
          "internalType": "bytes32",
          "name": "s",
          "type": "bytes32"
        }
      ],
      "name": "removeLiquidityETHWithPermitSupportingFeeOnTransferTokens",
      "outputs": [
        {
          "internalType": "uint256",
          "name": "amountETH",
          "type": "uint256"
        }
      ],
      "stateMutability": "nonpayable",
      "type": "function"
    },
    {
      "inputs": [
        {
          "internalType": "uint256",
          "name": "amountIn",
          "type": "uint256"
        },
        {
          "internalType": "uint256",
          "name": "amountOutMin",
          "type": "uint256"
        },
        {
          "internalType": "address[]",
          "name": "path",
          "type": "address[]"
        },
        {
          "internalType": "address",
          "name": "to",
          "type": "address"
        },
        {
          "internalType": "uint256",
          "name": "deadline",
          "type": "uint256"
        }
      ],
      "name": "swapExactTokensForTokens",
      "outputs": [
        {
          "internalType": "uint256[]",
          "name": "amounts",
          "type": "uint256[]"
        }
      ],
      "stateMutability": "nonpayable",
      "type": "function"
    },
    {
      "inputs": [
        {
          "internalType": "uint256",
          "name": "amountOut",
          "type": "uint256"
        },
        {
          "internalType": "uint256",
          "name": "amountInMax",
          "type": "uint256"
        },
        {
          "internalType": "address[]",
          "name": "path",
          "type": "address[]"
        },
        {
          "internalType": "address",
          "name": "to",
          "type": "address"
        },
        {
          "internalType": "uint256",
          "name": "deadline",
          "type": "uint256"
        }
      ],
      "name": "swapTokensForExactTokens",
      "outputs": [
        {
          "internalType": "uint256[]",
          "name": "amounts",
          "type": "uint256[]"
        }
      ],
      "stateMutability": "nonpayable",
      "type": "function"
    },
    {
      "inputs": [
        {
          "internalType": "uint256",
          "name": "amountOutMin",
          "type": "uint256"
        },
        {
          "internalType": "address[]",
          "name": "path",
          "type": "address[]"
        },
        {
          "internalType": "address",
          "name": "to",
          "type": "address"
        },
        {
          "internalType": "uint256",
          "name": "deadline",
          "type": "uint256"
        }
      ],
      "name": "swapExactETHForTokens",
      "outputs": [
        {
          "internalType": "uint256[]",
          "name": "amounts",
          "type": "uint256[]"
        }
      ],
      "stateMutability": "payable",
      "type": "function",
      "payable": true
    },
    {
      "inputs": [
        {
          "internalType": "uint256",
          "name": "amountOut",
          "type": "uint256"
        },
        {
          "internalType": "uint256",
          "name": "amountInMax",
          "type": "uint256"
        },
        {
          "internalType": "address[]",
          "name": "path",
          "type": "address[]"
        },
        {
          "internalType": "address",
          "name": "to",
          "type": "address"
        },
        {
          "internalType": "uint256",
          "name": "deadline",
          "type": "uint256"
        }
      ],
      "name": "swapTokensForExactETH",
      "outputs": [
        {
          "internalType": "uint256[]",
          "name": "amounts",
          "type": "uint256[]"
        }
      ],
      "stateMutability": "nonpayable",
      "type": "function"
    },
    {
      "inputs": [
        {
          "internalType": "uint256",
          "name": "amountIn",
          "type": "uint256"
        },
        {
          "internalType": "uint256",
          "name": "amountOutMin",
          "type": "uint256"
        },
        {
          "internalType": "address[]",
          "name": "path",
          "type": "address[]"
        },
        {
          "internalType": "address",
          "name": "to",
          "type": "address"
        },
        {
          "internalType": "uint256",
          "name": "deadline",
          "type": "uint256"
        }
      ],
      "name": "swapExactTokensForETH",
      "outputs": [
        {
          "internalType": "uint256[]",
          "name": "amounts",
          "type": "uint256[]"
        }
      ],
      "stateMutability": "nonpayable",
      "type": "function"
    },
    {
      "inputs": [
        {
          "internalType": "uint256",
          "name": "amountOut",
          "type": "uint256"
        },
        {
          "internalType": "address[]",
          "name": "path",
          "type": "address[]"
        },
        {
          "internalType": "address",
          "name": "to",
          "type": "address"
        },
        {
          "internalType": "uint256",
          "name": "deadline",
          "type": "uint256"
        }
      ],
      "name": "swapETHForExactTokens",
      "outputs": [
        {
          "internalType": "uint256[]",
          "name": "amounts",
          "type": "uint256[]"
        }
      ],
      "stateMutability": "payable",
      "type": "function",
      "payable": true
    },
    {
      "inputs": [
        {
          "internalType": "uint256",
          "name": "amountIn",
          "type": "uint256"
        },
        {
          "internalType": "uint256",
          "name": "amountOutMin",
          "type": "uint256"
        },
        {
          "internalType": "address[]",
          "name": "path",
          "type": "address[]"
        },
        {
          "internalType": "address",
          "name": "to",
          "type": "address"
        },
        {
          "internalType": "uint256",
          "name": "deadline",
          "type": "uint256"
        }
      ],
      "name": "swapExactTokensForTokensSupportingFeeOnTransferTokens",
      "outputs": [],
      "stateMutability": "nonpayable",
      "type": "function"
    },
    {
      "inputs": [
        {
          "internalType": "uint256",
          "name": "amountOutMin",
          "type": "uint256"
        },
        {
          "internalType": "address[]",
          "name": "path",
          "type": "address[]"
        },
        {
          "internalType": "address",
          "name": "to",
          "type": "address"
        },
        {
          "internalType": "uint256",
          "name": "deadline",
          "type": "uint256"
        }
      ],
      "name": "swapExactETHForTokensSupportingFeeOnTransferTokens",
      "outputs": [],
      "stateMutability": "payable",
      "type": "function",
      "payable": true
    },
    {
      "inputs": [
        {
          "internalType": "uint256",
          "name": "amountIn",
          "type": "uint256"
        },
        {
          "internalType": "uint256",
          "name": "amountOutMin",
          "type": "uint256"
        },
        {
          "internalType": "address[]",
          "name": "path",
          "type": "address[]"
        },
        {
          "internalType": "address",
          "name": "to",
          "type": "address"
        },
        {
          "internalType": "uint256",
          "name": "deadline",
          "type": "uint256"
        }
      ],
      "name": "swapExactTokensForETHSupportingFeeOnTransferTokens",
      "outputs": [],
      "stateMutability": "nonpayable",
      "type": "function"
    },
    {
      "inputs": [
        {
          "internalType": "uint256",
          "name": "amountA",
          "type": "uint256"
        },
        {
          "internalType": "uint256",
          "name": "reserveA",
          "type": "uint256"
        },
        {
          "internalType": "uint256",
          "name": "reserveB",
          "type": "uint256"
        }
      ],
      "name": "quote",
      "outputs": [
        {
          "internalType": "uint256",
          "name": "amountB",
          "type": "uint256"
        }
      ],
      "stateMutability": "pure",
      "type": "function",
      "constant": true
    },
    {
      "inputs": [
        {
          "internalType": "uint256",
          "name": "amountIn",
          "type": "uint256"
        },
        {
          "internalType": "uint256",
          "name": "reserveIn",
          "type": "uint256"
        },
        {
          "internalType": "uint256",
          "name": "reserveOut",
          "type": "uint256"
        }
      ],
      "name": "getAmountOut",
      "outputs": [
        {
          "internalType": "uint256",
          "name": "amountOut",
          "type": "uint256"
        }
      ],
      "stateMutability": "pure",
      "type": "function",
      "constant": true
    },
    {
      "inputs": [
        {
          "internalType": "uint256",
          "name": "amountOut",
          "type": "uint256"
        },
        {
          "internalType": "uint256",
          "name": "reserveIn",
          "type": "uint256"
        },
        {
          "internalType": "uint256",
          "name": "reserveOut",
          "type": "uint256"
        }
      ],
      "name": "getAmountIn",
      "outputs": [
        {
          "internalType": "uint256",
          "name": "amountIn",
          "type": "uint256"
        }
      ],
      "stateMutability": "pure",
      "type": "function",
      "constant": true
    },
    {
      "inputs": [
        {
          "internalType": "uint256",
          "name": "amountIn",
          "type": "uint256"
        },
        {
          "internalType": "address[]",
          "name": "path",
          "type": "address[]"
        }
      ],
      "name": "getAmountsOut",
      "outputs": [
        {
          "internalType": "uint256[]",
          "name": "amounts",
          "type": "uint256[]"
        }
      ],
      "stateMutability": "view",
      "type": "function",
      "constant": true
    },
    {
      "inputs": [
        {
          "internalType": "uint256",
          "name": "amountOut",
          "type": "uint256"
        },
        {
          "internalType": "address[]",
          "name": "path",
          "type": "address[]"
        }
      ],
      "name": "getAmountsIn",
      "outputs": [
        {
          "internalType": "uint256[]",
          "name": "amounts",
          "type": "uint256[]"
        }
      ],
      "stateMutability": "view",
      "type": "function",
      "constant": true
    }
  ],
  "bytecode": "0x60c060405234801561001057600080fd5b5060405162004ec438038062004ec48339818101604052604081101561003557600080fd5b5080516020909101516001600160601b0319606092831b8116608052911b1660a05260805160601c60a05160601c614d17620001ad600039806101955280610dcf5280610e0a5280610f01528061111f528061135d52806113b352806113e7528061145b528061174a52806118b05280611c655280611d405280611e1a5280611ef2528061203852806120c0528061243c52806124b75280612569528061264152806126d6528061274a5280612c6a5280612ee05280612f365280612f6a5280612fde528061317a52806132bd5280613345525080610f8f528061106652806111e5528061121e528061139152806115fa52806117d8528061188e52806119fe5280611f8552806120f2528061224c528061235d528061277c52806129f75280612bef5280612c185280612c485280612db55280612f14528061320d52806133775280613bfd5280613c405280613ed35280613f8c528061403f528061415852806142e2528061445852806146b95250614d176000f3fe6080604052600436106101855760003560e01c80638803dbee116100d1578063baa2abde1161008a578063ded9382a11610064578063ded9382a14610be3578063e8e3370014610c56578063f305d71914610cb8578063fb3bdb4114610cfe576101be565b8063baa2abde14610abc578063c45a015514610b19578063d06ca61f14610b2e576101be565b80638803dbee1461087f57806391a7b0ae14610915578063ad5c46481461097e578063ad615dec146109af578063af2979eb146109e5578063b6f9de9514610a38576101be565b806338ed17391161013e5780635c11d795116101185780635c11d79514610699578063791ac9471461072f5780637ff36ab5146107c557806385f8c25914610849576101be565b806338ed1739146104fa5780634a25d94a146105905780635b0d598414610626576101be565b806302751cec146101c3578063054d50d41461022f57806318cbafe5146102775780631f00ca741461035d5780632195995c146104125780632267397614610490576101be565b366101be57336001600160a01b037f000000000000000000000000000000000000000000000000000000000000000016146101bc57fe5b005b600080fd5b3480156101cf57600080fd5b50610216600480360360c08110156101e657600080fd5b506001600160a01b0381358116916020810135916040820135916060810135916080820135169060a00135610d82565b6040805192835260208301919091528051918290030190f35b34801561023b57600080fd5b506102656004803603606081101561025257600080fd5b5080359060208101359060400135610e9c565b60408051918252519081900360200190f35b34801561028357600080fd5b5061030d600480360360a081101561029a57600080fd5b813591602081013591810190606081016040820135600160201b8111156102c057600080fd5b8201836020820111156102d257600080fd5b803590602001918460208302840111600160201b831117156102f357600080fd5b91935091506001600160a01b038135169060200135610eb1565b60408051602080825283518183015283519192839290830191858101910280838360005b83811015610349578181015183820152602001610331565b505050509050019250505060405180910390f35b34801561036957600080fd5b5061030d6004803603604081101561038057600080fd5b81359190810190604081016020820135600160201b8111156103a157600080fd5b8201836020820111156103b357600080fd5b803590602001918460208302840111600160201b831117156103d457600080fd5b9190808060200260200160405190810160405280939291908181526020018383602002808284376000920191909152509295506111de945050505050565b34801561041e57600080fd5b50610216600480360361016081101561043657600080fd5b506001600160a01b038135811691602081013582169160408201359160608101359160808201359160a08101359091169060c08101359060e081013515159060ff6101008201351690610120810135906101400135611214565b6104dc600480360360e08110156104a657600080fd5b506001600160a01b0381358116916020810135916040820135916060810135916080820135169060a08101359060c0013561130e565b60408051938452602084019290925282820152519081900360600190f35b34801561050657600080fd5b5061030d600480360360a081101561051d57600080fd5b813591602081013591810190606081016040820135600160201b81111561054357600080fd5b82018360208201111561055557600080fd5b803590602001918460208302840111600160201b8311171561057657600080fd5b91935091506001600160a01b0381351690602001356115af565b34801561059c57600080fd5b5061030d600480360360a08110156105b357600080fd5b813591602081013591810190606081016040820135600160201b8111156105d957600080fd5b8201836020820111156105eb57600080fd5b803590602001918460208302840111600160201b8311171561060c57600080fd5b91935091506001600160a01b0381351690602001356116fa565b34801561063257600080fd5b50610265600480360361014081101561064a57600080fd5b506001600160a01b0381358116916020810135916040820135916060810135916080820135169060a08101359060c081013515159060ff60e08201351690610100810135906101200135611886565b3480156106a557600080fd5b506101bc600480360360a08110156106bc57600080fd5b813591602081013591810190606081016040820135600160201b8111156106e257600080fd5b8201836020820111156106f457600080fd5b803590602001918460208302840111600160201b8311171561071557600080fd5b91935091506001600160a01b038135169060200135611994565b34801561073b57600080fd5b506101bc600480360360a081101561075257600080fd5b813591602081013591810190606081016040820135600160201b81111561077857600080fd5b82018360208201111561078a57600080fd5b803590602001918460208302840111600160201b831117156107ab57600080fd5b91935091506001600160a01b038135169060200135611c17565b61030d600480360360808110156107db57600080fd5b81359190810190604081016020820135600160201b8111156107fc57600080fd5b82018360208201111561080e57600080fd5b803590602001918460208302840111600160201b8311171561082f57600080fd5b91935091506001600160a01b038135169060200135611eaa565b34801561085557600080fd5b506102656004803603606081101561086c57600080fd5b50803590602081013590604001356121f4565b34801561088b57600080fd5b5061030d600480360360a08110156108a257600080fd5b813591602081013591810190606081016040820135600160201b8111156108c857600080fd5b8201836020820111156108da57600080fd5b803590602001918460208302840111600160201b831117156108fb57600080fd5b91935091506001600160a01b038135169060200135612201565b34801561092157600080fd5b506104dc600480360361012081101561093957600080fd5b506001600160a01b038135811691602081013582169160408201359160608101359160808201359160a08101359160c0820135169060e08101359061010001356122fa565b34801561098a57600080fd5b5061099361243a565b604080516001600160a01b039092168252519081900360200190f35b3480156109bb57600080fd5b50610265600480360360608110156109d257600080fd5b508035906020810135906040013561245e565b3480156109f157600080fd5b50610265600480360360c0811015610a0857600080fd5b506001600160a01b0381358116916020810135916040820135916060810135916080820135169060a0013561246b565b6101bc60048036036080811015610a4e57600080fd5b81359190810190604081016020820135600160201b811115610a6f57600080fd5b820183602082011115610a8157600080fd5b803590602001918460208302840111600160201b83111715610aa257600080fd5b91935091506001600160a01b0381351690602001356125fb565b348015610ac857600080fd5b50610216600480360360e0811015610adf57600080fd5b506001600160a01b038135811691602081013582169160408201359160608101359160808201359160a08101359091169060c001356129a9565b348015610b2557600080fd5b50610993612bed565b348015610b3a57600080fd5b5061030d60048036036040811015610b5157600080fd5b81359190810190604081016020820135600160201b811115610b7257600080fd5b820183602082011115610b8457600080fd5b803590602001918460208302840111600160201b83111715610ba557600080fd5b919080806020026020016040519081016040528093929190818152602001838360200280828437600092019190915250929550612c11945050505050565b348015610bef57600080fd5b506102166004803603610140811015610c0757600080fd5b506001600160a01b0381358116916020810135916040820135916060810135916080820135169060a08101359060c081013515159060ff60e08201351690610100810135906101200135612c3e565b348015610c6257600080fd5b506104dc6004803603610100811015610c7a57600080fd5b506001600160a01b038135811691602081013582169160408201359160608101359160808201359160a08101359160c0820135169060e00135612d52565b6104dc600480360360c0811015610cce57600080fd5b506001600160a01b0381358116916020810135916040820135916060810135916080820135169060a00135612e91565b61030d60048036036080811015610d1457600080fd5b81359190810190604081016020820135600160201b811115610d3557600080fd5b820183602082011115610d4757600080fd5b803590602001918460208302840111600160201b83111715610d6857600080fd5b91935091506001600160a01b038135169060200135613132565b6000808242811015610dc9576040805162461bcd60e51b81526020600482015260186024820152600080516020614cc2833981519152604482015290519081900360640190fd5b610df8897f00000000000000000000000000000000000000000000000000000000000000008a8a8a308a6129a9565b9093509150610e088986856134ab565b7f00000000000000000000000000000000000000000000000000000000000000006001600160a01b0316632e1a7d4d836040518263ffffffff1660e01b815260040180828152602001915050600060405180830381600087803b158015610e6e57600080fd5b505af1158015610e82573d6000803e3d6000fd5b50505050610e908583613615565b50965096945050505050565b6000610ea984848461370d565b949350505050565b60608142811015610ef7576040805162461bcd60e51b81526020600482015260186024820152600080516020614cc2833981519152604482015290519081900360640190fd5b6001600160a01b037f00000000000000000000000000000000000000000000000000000000000000001686866000198101818110610f3157fe5b905060200201356001600160a01b03166001600160a01b031614610f8a576040805162461bcd60e51b815260206004820152601d6024820152600080516020614bdf833981519152604482015290519081900360640190fd5b610fe87f0000000000000000000000000000000000000000000000000000000000000000898888808060200260200160405190810160405280939291908181526020018383602002808284376000920191909152506137e592505050565b91508682600184510381518110610ffb57fe5b602002602001015110156110405760405162461bcd60e51b815260040180806020018281038252602b815260200180614c48602b913960400191505060405180910390fd5b6110de8686600081811061105057fe5b905060200201356001600160a01b0316336110c47f00000000000000000000000000000000000000000000000000000000000000008a8a600081811061109257fe5b905060200201356001600160a01b03168b8b60018181106110af57fe5b905060200201356001600160a01b0316613931565b856000815181106110d157fe5b60200260200101516139f1565b61111d82878780806020026020016040519081016040528093929190818152602001838360200280828437600092019190915250309250613b4e915050565b7f00000000000000000000000000000000000000000000000000000000000000006001600160a01b0316632e1a7d4d8360018551038151811061115c57fe5b60200260200101516040518263ffffffff1660e01b815260040180828152602001915050600060405180830381600087803b15801561119a57600080fd5b505af11580156111ae573d6000803e3d6000fd5b505050506111d384836001855103815181106111c657fe5b6020026020010151613615565b509695505050505050565b606061120b7f00000000000000000000000000000000000000000000000000000000000000008484613d8b565b90505b92915050565b60008060006112447f00000000000000000000000000000000000000000000000000000000000000008f8f613931565b9050600087611253578c611257565b6000195b6040805163d505accf60e01b815233600482015230602482015260448101839052606481018c905260ff8a16608482015260a4810189905260c4810188905290519192506001600160a01b0384169163d505accf9160e48082019260009290919082900301818387803b1580156112cd57600080fd5b505af11580156112e1573d6000803e3d6000fd5b505050506112f48f8f8f8f8f8f8f6129a9565b809450819550505050509b509b9950505050505050505050565b60008060008342811015611357576040805162461bcd60e51b81526020600482015260186024820152600080516020614cc2833981519152604482015290519081900360640190fd5b6113858b7f00000000000000000000000000000000000000000000000000000000000000008c348d8d613ec3565b909450925060006113d77f00000000000000000000000000000000000000000000000000000000000000008d7f0000000000000000000000000000000000000000000000000000000000000000613931565b90506113e58c3383886139f1565b7f00000000000000000000000000000000000000000000000000000000000000006001600160a01b031663d0e30db0856040518263ffffffff1660e01b81526004016000604051808303818588803b15801561144057600080fd5b505af1158015611454573d6000803e3d6000fd5b50505050507f00000000000000000000000000000000000000000000000000000000000000006001600160a01b031663a9059cbb82866040518363ffffffff1660e01b815260040180836001600160a01b0316815260200182815260200192505050602060405180830381600087803b1580156114d057600080fd5b505af11580156114e4573d6000803e3d6000fd5b505050506040513d60208110156114fa57600080fd5b505161150257fe5b806001600160a01b0316636a627842896040518263ffffffff1660e01b815260040180826001600160a01b03168152602001915050602060405180830381600087803b15801561155157600080fd5b505af1158015611565573d6000803e3d6000fd5b505050506040513d602081101561157b57600080fd5b50519250348410156115935761159333853403613615565b6115a0888d87878b614154565b50509750975097945050505050565b606081428110156115f5576040805162461bcd60e51b81526020600482015260186024820152600080516020614cc2833981519152604482015290519081900360640190fd5b6116537f0000000000000000000000000000000000000000000000000000000000000000898888808060200260200160405190810160405280939291908181526020018383602002808284376000920191909152506137e592505050565b9150868260018451038151811061166657fe5b602002602001015110156116ab5760405162461bcd60e51b815260040180806020018281038252602b815260200180614c48602b913960400191505060405180910390fd5b6116bb8686600081811061105057fe5b6111d382878780806020026020016040519081016040528093929190818152602001838360200280828437600092019190915250899250613b4e915050565b60608142811015611740576040805162461bcd60e51b81526020600482015260186024820152600080516020614cc2833981519152604482015290519081900360640190fd5b6001600160a01b037f0000000000000000000000000000000000000000000000000000000000000000168686600019810181811061177a57fe5b905060200201356001600160a01b03166001600160a01b0316146117d3576040805162461bcd60e51b815260206004820152601d6024820152600080516020614bdf833981519152604482015290519081900360640190fd5b6118317f000000000000000000000000000000000000000000000000000000000000000089888880806020026020016040519081016040528093929190818152602001838360200280828437600092019190915250613d8b92505050565b9150868260008151811061184157fe5b602002602001015111156110405760405162461bcd60e51b8152600401808060200182810382526027815260200180614bb86027913960400191505060405180910390fd5b6000806118d47f00000000000000000000000000000000000000000000000000000000000000008d7f0000000000000000000000000000000000000000000000000000000000000000613931565b90506000866118e3578b6118e7565b6000195b6040805163d505accf60e01b815233600482015230602482015260448101839052606481018b905260ff8916608482015260a4810188905260c4810187905290519192506001600160a01b0384169163d505accf9160e48082019260009290919082900301818387803b15801561195d57600080fd5b505af1158015611971573d6000803e3d6000fd5b505050506119838d8d8d8d8d8d61246b565b9d9c50505050505050505050505050565b80428110156119d8576040805162461bcd60e51b81526020600482015260186024820152600080516020614cc2833981519152604482015290519081900360640190fd5b611a4d858560008181106119e857fe5b905060200201356001600160a01b031633611a477f000000000000000000000000000000000000000000000000000000000000000089896000818110611a2a57fe5b905060200201356001600160a01b03168a8a60018181106110af57fe5b8a6139f1565b600085856000198101818110611a5f57fe5b905060200201356001600160a01b03166001600160a01b03166370a08231856040518263ffffffff1660e01b815260040180826001600160a01b0316815260200191505060206040518083038186803b158015611abb57600080fd5b505afa158015611acf573d6000803e3d6000fd5b505050506040513d6020811015611ae557600080fd5b50516040805160208881028281018201909352888252929350611b2792909189918991829185019084908082843760009201919091525088925061428b915050565b6000611bcb8288886000198101818110611b3d57fe5b905060200201356001600160a01b03166001600160a01b03166370a08231886040518263ffffffff1660e01b815260040180826001600160a01b0316815260200191505060206040518083038186803b158015611b9957600080fd5b505afa158015611bad573d6000803e3d6000fd5b505050506040513d6020811015611bc357600080fd5b50519061458d565b905087811015611c0c5760405162461bcd60e51b815260040180806020018281038252602b815260200180614c48602b913960400191505060405180910390fd5b505050505050505050565b8042811015611c5b576040805162461bcd60e51b81526020600482015260186024820152600080516020614cc2833981519152604482015290519081900360640190fd5b6001600160a01b037f00000000000000000000000000000000000000000000000000000000000000001685856000198101818110611c9557fe5b905060200201356001600160a01b03166001600160a01b031614611cee576040805162461bcd60e51b815260206004820152601d6024820152600080516020614bdf833981519152604482015290519081900360640190fd5b611cfe858560008181106119e857fe5b611d3c85858080602002602001604051908101604052809392919081815260200183836020028082843760009201919091525030925061428b915050565b60007f00000000000000000000000000000000000000000000000000000000000000006001600160a01b03166370a08231306040518263ffffffff1660e01b815260040180826001600160a01b0316815260200191505060206040518083038186803b158015611dab57600080fd5b505afa158015611dbf573d6000803e3d6000fd5b505050506040513d6020811015611dd557600080fd5b5051905086811015611e185760405162461bcd60e51b815260040180806020018281038252602b815260200180614c48602b913960400191505060405180910390fd5b7f00000000000000000000000000000000000000000000000000000000000000006001600160a01b0316632e1a7d4d826040518263ffffffff1660e01b815260040180828152602001915050600060405180830381600087803b158015611e7e57600080fd5b505af1158015611e92573d6000803e3d6000fd5b50505050611ea08482613615565b5050505050505050565b60608142811015611ef0576040805162461bcd60e51b81526020600482015260186024820152600080516020614cc2833981519152604482015290519081900360640190fd5b7f00000000000000000000000000000000000000000000000000000000000000006001600160a01b031686866000818110611f2757fe5b905060200201356001600160a01b03166001600160a01b031614611f80576040805162461bcd60e51b815260206004820152601d6024820152600080516020614bdf833981519152604482015290519081900360640190fd5b611fde7f0000000000000000000000000000000000000000000000000000000000000000348888808060200260200160405190810160405280939291908181526020018383602002808284376000920191909152506137e592505050565b91508682600184510381518110611ff157fe5b602002602001015110156120365760405162461bcd60e51b815260040180806020018281038252602b815260200180614c48602b913960400191505060405180910390fd5b7f00000000000000000000000000000000000000000000000000000000000000006001600160a01b031663d0e30db08360008151811061207257fe5b60200260200101516040518263ffffffff1660e01b81526004016000604051808303818588803b1580156120a557600080fd5b505af11580156120b9573d6000803e3d6000fd5b50505050507f00000000000000000000000000000000000000000000000000000000000000006001600160a01b031663a9059cbb61211e7f000000000000000000000000000000000000000000000000000000000000000089896000818110611a2a57fe5b8460008151811061212b57fe5b60200260200101516040518363ffffffff1660e01b815260040180836001600160a01b0316815260200182815260200192505050602060405180830381600087803b15801561217957600080fd5b505af115801561218d573d6000803e3d6000fd5b505050506040513d60208110156121a357600080fd5b50516121ab57fe5b6121ea82878780806020026020016040519081016040528093929190818152602001838360200280828437600092019190915250899250613b4e915050565b5095945050505050565b6000610ea98484846145dd565b60608142811015612247576040805162461bcd60e51b81526020600482015260186024820152600080516020614cc2833981519152604482015290519081900360640190fd5b6122a57f000000000000000000000000000000000000000000000000000000000000000089888880806020026020016040519081016040528093929190818152602001838360200280828437600092019190915250613d8b92505050565b915086826000815181106122b557fe5b602002602001015111156116ab5760405162461bcd60e51b8152600401808060200182810382526027815260200180614bb86027913960400191505060405180910390fd5b60008060008342811015612343576040805162461bcd60e51b81526020600482015260186024820152600080516020614cc2833981519152604482015290519081900360640190fd5b6123518d8d8d8d8d8d613ec3565b909450925060006123837f00000000000000000000000000000000000000000000000000000000000000008f8f613931565b90506123918e3383886139f1565b61239d8d3383876139f1565b806001600160a01b0316636a627842896040518263ffffffff1660e01b815260040180826001600160a01b03168152602001915050602060405180830381600087803b1580156123ec57600080fd5b505af1158015612400573d6000803e3d6000fd5b505050506040513d602081101561241657600080fd5b5051925061242a9050878e868f878b6146b5565b5099509950999650505050505050565b7f000000000000000000000000000000000000000000000000000000000000000081565b6000610ea98484846147f6565b600081428110156124b1576040805162461bcd60e51b81526020600482015260186024820152600080516020614cc2833981519152604482015290519081900360640190fd5b6124e0887f000000000000000000000000000000000000000000000000000000000000000089898930896129a9565b604080516370a0823160e01b81523060048201529051919450600092506001600160a01b038b16916370a0823191602480820192602092909190829003018186803b15801561252e57600080fd5b505afa158015612542573d6000803e3d6000fd5b505050506040513d602081101561255857600080fd5b505190506125678986836134ab565b7f00000000000000000000000000000000000000000000000000000000000000006001600160a01b0316632e1a7d4d846040518263ffffffff1660e01b815260040180828152602001915050600060405180830381600087803b1580156125cd57600080fd5b505af11580156125e1573d6000803e3d6000fd5b505050506125ef8584613615565b50509695505050505050565b804281101561263f576040805162461bcd60e51b81526020600482015260186024820152600080516020614cc2833981519152604482015290519081900360640190fd5b7f00000000000000000000000000000000000000000000000000000000000000006001600160a01b03168585600081811061267657fe5b905060200201356001600160a01b03166001600160a01b0316146126cf576040805162461bcd60e51b815260206004820152601d6024820152600080516020614bdf833981519152604482015290519081900360640190fd5b60003490507f00000000000000000000000000000000000000000000000000000000000000006001600160a01b031663d0e30db0826040518263ffffffff1660e01b81526004016000604051808303818588803b15801561272f57600080fd5b505af1158015612743573d6000803e3d6000fd5b50505050507f00000000000000000000000000000000000000000000000000000000000000006001600160a01b031663a9059cbb6127a87f000000000000000000000000000000000000000000000000000000000000000089896000818110611a2a57fe5b836040518363ffffffff1660e01b815260040180836001600160a01b0316815260200182815260200192505050602060405180830381600087803b1580156127ef57600080fd5b505af1158015612803573d6000803e3d6000fd5b505050506040513d602081101561281957600080fd5b505161282157fe5b60008686600019810181811061283357fe5b905060200201356001600160a01b03166001600160a01b03166370a08231866040518263ffffffff1660e01b815260040180826001600160a01b0316815260200191505060206040518083038186803b15801561288f57600080fd5b505afa1580156128a3573d6000803e3d6000fd5b505050506040513d60208110156128b957600080fd5b505160408051602089810282810182019093528982529293506128fb9290918a918a91829185019084908082843760009201919091525089925061428b915050565b8761296c828989600019810181811061291057fe5b905060200201356001600160a01b03166001600160a01b03166370a08231896040518263ffffffff1660e01b815260040180826001600160a01b0316815260200191505060206040518083038186803b158015611b9957600080fd5b1015611ea05760405162461bcd60e51b815260040180806020018281038252602b815260200180614c48602b913960400191505060405180910390fd5b60008082428110156129f0576040805162461bcd60e51b81526020600482015260186024820152600080516020614cc2833981519152604482015290519081900360640190fd5b6000612a1d7f00000000000000000000000000000000000000000000000000000000000000008c8c613931565b604080516323b872dd60e01b81523360048201526001600160a01b03831660248201819052604482018d9052915192935090916323b872dd916064808201926020929091908290030181600087803b158015612a7857600080fd5b505af1158015612a8c573d6000803e3d6000fd5b505050506040513d6020811015612aa257600080fd5b50506040805163226bf2d160e21b81526001600160a01b03888116600483015282516000938493928616926389afcb44926024808301939282900301818787803b158015612aef57600080fd5b505af1158015612b03573d6000803e3d6000fd5b505050506040513d6040811015612b1957600080fd5b50805160209091015190925090506000612b338e8e61489c565b509050806001600160a01b03168e6001600160a01b031614612b56578183612b59565b82825b90975095508a871015612b9d5760405162461bcd60e51b8152600401808060200182810382526026815260200180614bff6026913960400191505060405180910390fd5b89861015612bdc5760405162461bcd60e51b8152600401808060200182810382526026815260200180614b456026913960400191505060405180910390fd5b505050505097509795505050505050565b7f000000000000000000000000000000000000000000000000000000000000000081565b606061120b7f000000000000000000000000000000000000000000000000000000000000000084846137e5565b6000806000612c8e7f00000000000000000000000000000000000000000000000000000000000000008e7f0000000000000000000000000000000000000000000000000000000000000000613931565b9050600087612c9d578c612ca1565b6000195b6040805163d505accf60e01b815233600482015230602482015260448101839052606481018c905260ff8a16608482015260a4810189905260c4810188905290519192506001600160a01b0384169163d505accf9160e48082019260009290919082900301818387803b158015612d1757600080fd5b505af1158015612d2b573d6000803e3d6000fd5b50505050612d3d8e8e8e8e8e8e610d82565b909f909e509c50505050505050505050505050565b60008060008342811015612d9b576040805162461bcd60e51b81526020600482015260186024820152600080516020614cc2833981519152604482015290519081900360640190fd5b612da98c8c8c8c8c8c613ec3565b90945092506000612ddb7f00000000000000000000000000000000000000000000000000000000000000008e8e613931565b9050612de98d3383886139f1565b612df58c3383876139f1565b806001600160a01b0316636a627842886040518263ffffffff1660e01b815260040180826001600160a01b03168152602001915050602060405180830381600087803b158015612e4457600080fd5b505af1158015612e58573d6000803e3d6000fd5b505050506040513d6020811015612e6e57600080fd5b50519250612e81878e878f8860006146b5565b5050985098509895505050505050565b60008060008342811015612eda576040805162461bcd60e51b81526020600482015260186024820152600080516020614cc2833981519152604482015290519081900360640190fd5b612f088a7f00000000000000000000000000000000000000000000000000000000000000008b348c8c613ec3565b90945092506000612f5a7f00000000000000000000000000000000000000000000000000000000000000008c7f0000000000000000000000000000000000000000000000000000000000000000613931565b9050612f688b3383886139f1565b7f00000000000000000000000000000000000000000000000000000000000000006001600160a01b031663d0e30db0856040518263ffffffff1660e01b81526004016000604051808303818588803b158015612fc357600080fd5b505af1158015612fd7573d6000803e3d6000fd5b50505050507f00000000000000000000000000000000000000000000000000000000000000006001600160a01b031663a9059cbb82866040518363ffffffff1660e01b815260040180836001600160a01b0316815260200182815260200192505050602060405180830381600087803b15801561305357600080fd5b505af1158015613067573d6000803e3d6000fd5b505050506040513d602081101561307d57600080fd5b505161308557fe5b806001600160a01b0316636a627842886040518263ffffffff1660e01b815260040180826001600160a01b03168152602001915050602060405180830381600087803b1580156130d457600080fd5b505af11580156130e8573d6000803e3d6000fd5b505050506040513d60208110156130fe57600080fd5b50519250348410156131165761311633853403613615565b613124878c87876000614154565b505096509650969350505050565b60608142811015613178576040805162461bcd60e51b81526020600482015260186024820152600080516020614cc2833981519152604482015290519081900360640190fd5b7f00000000000000000000000000000000000000000000000000000000000000006001600160a01b0316868660008181106131af57fe5b905060200201356001600160a01b03166001600160a01b031614613208576040805162461bcd60e51b815260206004820152601d6024820152600080516020614bdf833981519152604482015290519081900360640190fd5b6132667f000000000000000000000000000000000000000000000000000000000000000088888880806020026020016040519081016040528093929190818152602001838360200280828437600092019190915250613d8b92505050565b9150348260008151811061327657fe5b602002602001015111156132bb5760405162461bcd60e51b8152600401808060200182810382526027815260200180614bb86027913960400191505060405180910390fd5b7f00000000000000000000000000000000000000000000000000000000000000006001600160a01b031663d0e30db0836000815181106132f757fe5b60200260200101516040518263ffffffff1660e01b81526004016000604051808303818588803b15801561332a57600080fd5b505af115801561333e573d6000803e3d6000fd5b50505050507f00000000000000000000000000000000000000000000000000000000000000006001600160a01b031663a9059cbb6133a37f000000000000000000000000000000000000000000000000000000000000000089896000818110611a2a57fe5b846000815181106133b057fe5b60200260200101516040518363ffffffff1660e01b815260040180836001600160a01b0316815260200182815260200192505050602060405180830381600087803b1580156133fe57600080fd5b505af1158015613412573d6000803e3d6000fd5b505050506040513d602081101561342857600080fd5b505161343057fe5b61346f82878780806020026020016040519081016040528093929190818152602001838360200280828437600092019190915250899250613b4e915050565b8160008151811061347c57fe5b60200260200101513411156121ea576121ea338360008151811061349c57fe5b60200260200101513403613615565b604080516001600160a01b038481166024830152604480830185905283518084039091018152606490920183526020820180516001600160e01b031663a9059cbb60e01b178152925182516000946060949389169392918291908083835b602083106135285780518252601f199092019160209182019101613509565b6001836020036101000a0380198251168184511680821785525050505050509050019150506000604051808303816000865af19150503d806000811461358a576040519150601f19603f3d011682016040523d82523d6000602084013e61358f565b606091505b50915091508180156135bd5750805115806135bd57508080602001905160208110156135ba57600080fd5b50515b61360e576040805162461bcd60e51b815260206004820152601f60248201527f5472616e7366657248656c7065723a205452414e534645525f4641494c454400604482015290519081900360640190fd5b5050505050565b604080516000808252602082019092526001600160a01b0384169083906040518082805190602001908083835b602083106136615780518252601f199092019160209182019101613642565b6001836020036101000a03801982511681845116808217855250505050505090500191505060006040518083038185875af1925050503d80600081146136c3576040519150601f19603f3d011682016040523d82523d6000602084013e6136c8565b606091505b50509050806137085760405162461bcd60e51b8152600401808060200182810382526023815260200180614c256023913960400191505060405180910390fd5b505050565b600080841161374d5760405162461bcd60e51b815260040180806020018281038252602b815260200180614c97602b913960400191505060405180910390fd5b60008311801561375d5750600082115b6137985760405162461bcd60e51b8152600401808060200182810382526028815260200180614b6b6028913960400191505060405180910390fd5b60006137a6856103e561497a565b905060006137b4828561497a565b905060006137ce836137c8886103e861497a565b906149dd565b90508082816137d957fe5b04979650505050505050565b606060028251101561383e576040805162461bcd60e51b815260206004820152601e60248201527f556e697377617056324c6962726172793a20494e56414c49445f504154480000604482015290519081900360640190fd5b815167ffffffffffffffff8111801561385657600080fd5b50604051908082528060200260200182016040528015613880578160200160208202803683370190505b509050828160008151811061389157fe5b60200260200101818152505060005b6001835103811015613929576000806138e3878685815181106138bf57fe5b60200260200101518786600101815181106138d657fe5b6020026020010151614a2c565b915091506139058484815181106138f657fe5b6020026020010151838361370d565b84846001018151811061391457fe5b602090810291909101015250506001016138a0565b509392505050565b6000806000613940858561489c565b604080516bffffffffffffffffffffffff19606094851b811660208084019190915293851b81166034830152825160288184030181526048830184528051908501206001600160f81b031960688401529a90941b9093166069840152607d8301989098527f6ee5cf2638d8cc5e7c0b363d093bc82bff365a08e0c33b78b578869d85d67d53609d808401919091528851808403909101815260bd909201909752805196019590952095945050505050565b604080516001600160a01b0385811660248301528481166044830152606480830185905283518084039091018152608490920183526020820180516001600160e01b03166323b872dd60e01b17815292518251600094606094938a169392918291908083835b60208310613a765780518252601f199092019160209182019101613a57565b6001836020036101000a0380198251168184511680821785525050505050509050019150506000604051808303816000865af19150503d8060008114613ad8576040519150601f19603f3d011682016040523d82523d6000602084013e613add565b606091505b5091509150818015613b0b575080511580613b0b5750808060200190516020811015613b0857600080fd5b50515b613b465760405162461bcd60e51b8152600401808060200182810382526024815260200180614c736024913960400191505060405180910390fd5b505050505050565b60005b6001835103811015613d8557600080848381518110613b6c57fe5b6020026020010151858460010181518110613b8357fe5b6020026020010151915091506000613b9b838361489c565b5090506000878560010181518110613baf57fe5b60200260200101519050600080836001600160a01b0316866001600160a01b031614613bdd57826000613be1565b6000835b91509150600060028a51038810613bf85788613c39565b613c397f0000000000000000000000000000000000000000000000000000000000000000878c8b60020181518110613c2c57fe5b6020026020010151613931565b9050613c667f00000000000000000000000000000000000000000000000000000000000000008888613931565b6001600160a01b031663022c0d9f84848460006040519080825280601f01601f191660200182016040528015613ca3576020820181803683370190505b506040518563ffffffff1660e01b815260040180858152602001848152602001836001600160a01b0316815260200180602001828103825283818151815260200191508051906020019080838360005b83811015613d0b578181015183820152602001613cf3565b50505050905090810190601f168015613d385780820380516001836020036101000a031916815260200191505b5095505050505050600060405180830381600087803b158015613d5a57600080fd5b505af1158015613d6e573d6000803e3d6000fd5b505060019099019850613b51975050505050505050565b50505050565b6060600282511015613de4576040805162461bcd60e51b815260206004820152601e60248201527f556e697377617056324c6962726172793a20494e56414c49445f504154480000604482015290519081900360640190fd5b815167ffffffffffffffff81118015613dfc57600080fd5b50604051908082528060200260200182016040528015613e26578160200160208202803683370190505b5090508281600183510381518110613e3a57fe5b60209081029190910101528151600019015b801561392957600080613e7c87866001860381518110613e6857fe5b60200260200101518786815181106138d657fe5b91509150613e9e848481518110613e8f57fe5b602002602001015183836145dd565b846001850381518110613ead57fe5b6020908102919091010152505060001901613e4c565b60008060006001600160a01b03167f00000000000000000000000000000000000000000000000000000000000000006001600160a01b031663e6a439058a8a6040518363ffffffff1660e01b815260040180836001600160a01b03168152602001826001600160a01b031681526020019250505060206040518083038186803b158015613f4f57600080fd5b505afa158015613f63573d6000803e3d6000fd5b505050506040513d6020811015613f7957600080fd5b50516001600160a01b03161415614037577f00000000000000000000000000000000000000000000000000000000000000006001600160a01b031663c9c6539689896040518363ffffffff1660e01b815260040180836001600160a01b03168152602001826001600160a01b0316815260200192505050602060405180830381600087803b15801561400a57600080fd5b505af115801561401e573d6000803e3d6000fd5b505050506040513d602081101561403457600080fd5b50505b6000806140657f00000000000000000000000000000000000000000000000000000000000000008b8b614a2c565b91509150816000148015614077575080155b1561408757879350869250614147565b60006140948984846147f6565b90508781116140e757858110156140dc5760405162461bcd60e51b8152600401808060200182810382526026815260200180614b456026913960400191505060405180910390fd5b889450925082614145565b60006140f48984866147f6565b90508981111561410057fe5b8781101561413f5760405162461bcd60e51b8152600401808060200182810382526026815260200180614bff6026913960400191505060405180910390fd5b94508793505b505b5050965096945050505050565b60007f00000000000000000000000000000000000000000000000000000000000000006001600160a01b031663f25ec14a6040518163ffffffff1660e01b815260040160206040518083038186803b1580156141af57600080fd5b505afa1580156141c3573d6000803e3d6000fd5b505050506040513d60208110156141d957600080fd5b505190506001600160a01b038116158015906141fe57506001600160a01b0386163014155b15613b465760408051639954c0ff60e01b81526001600160a01b0388811660048301528781166024830152604482018790526064820186905260848201859052915191831691639954c0ff9160a48082019260009290919082900301818387803b15801561426b57600080fd5b505af115801561427f573d6000803e3d6000fd5b50505050505050505050565b60005b6001835103811015613708576000808483815181106142a957fe5b60200260200101518584600101815181106142c057fe5b60200260200101519150915060006142d8838361489c565b50905060006143087f00000000000000000000000000000000000000000000000000000000000000008585613931565b9050600080600080846001600160a01b0316630902f1ac6040518163ffffffff1660e01b815260040160606040518083038186803b15801561434957600080fd5b505afa15801561435d573d6000803e3d6000fd5b505050506040513d606081101561437357600080fd5b5080516020909101516001600160701b0391821693501690506000806001600160a01b038a8116908916146143a95782846143ac565b83835b91509150614401828b6001600160a01b03166370a082318a6040518263ffffffff1660e01b815260040180826001600160a01b0316815260200191505060206040518083038186803b158015611b9957600080fd5b955061440e86838361370d565b945050505050600080856001600160a01b0316886001600160a01b0316146144385782600061443c565b6000835b91509150600060028c51038a10614453578a614487565b6144877f0000000000000000000000000000000000000000000000000000000000000000898e8d60020181518110613c2c57fe5b604080516000808252602082019283905263022c0d9f60e01b835260248201878152604483018790526001600160a01b038086166064850152608060848501908152845160a48601819052969750908c169563022c0d9f958a958a958a9591949193919260c486019290918190849084905b838110156145115781810151838201526020016144f9565b50505050905090810190601f16801561453e5780820380516001836020036101000a031916815260200191505b5095505050505050600060405180830381600087803b15801561456057600080fd5b505af1158015614574573d6000803e3d6000fd5b50506001909b019a5061428e9950505050505050505050565b8082038281111561120e576040805162461bcd60e51b815260206004820152601560248201527464732d6d6174682d7375622d756e646572666c6f7760581b604482015290519081900360640190fd5b600080841161461d5760405162461bcd60e51b815260040180806020018281038252602c815260200180614af4602c913960400191505060405180910390fd5b60008311801561462d5750600082115b6146685760405162461bcd60e51b8152600401808060200182810382526028815260200180614b6b6028913960400191505060405180910390fd5b60006146806103e861467a868861497a565b9061497a565b905060006146946103e561467a868961458d565b90506146ab60018284816146a457fe5b04906149dd565b9695505050505050565b60007f00000000000000000000000000000000000000000000000000000000000000006001600160a01b031663f25ec14a6040518163ffffffff1660e01b815260040160206040518083038186803b15801561471057600080fd5b505afa158015614724573d6000803e3d6000fd5b505050506040513d602081101561473a57600080fd5b505190506001600160a01b0381161580159061475f57506001600160a01b0387163014155b156147ed576040805163e5291c2760e01b81526001600160a01b03898116600483015288811660248301526044820188905286811660648301526084820186905260a4820185905291519183169163e5291c279160c48082019260009290919082900301818387803b1580156147d457600080fd5b505af11580156147e8573d6000803e3d6000fd5b505050505b50505050505050565b60008084116148365760405162461bcd60e51b8152600401808060200182810382526025815260200180614b936025913960400191505060405180910390fd5b6000831180156148465750600082115b6148815760405162461bcd60e51b8152600401808060200182810382526028815260200180614b6b6028913960400191505060405180910390fd5b8261488c858461497a565b8161489357fe5b04949350505050565b600080826001600160a01b0316846001600160a01b031614156148f05760405162461bcd60e51b8152600401808060200182810382526025815260200180614b206025913960400191505060405180910390fd5b826001600160a01b0316846001600160a01b031610614910578284614913565b83835b90925090506001600160a01b038216614973576040805162461bcd60e51b815260206004820152601e60248201527f556e697377617056324c6962726172793a205a45524f5f414444524553530000604482015290519081900360640190fd5b9250929050565b60008115806149955750508082028282828161499257fe5b04145b61120e576040805162461bcd60e51b815260206004820152601460248201527364732d6d6174682d6d756c2d6f766572666c6f7760601b604482015290519081900360640190fd5b8082018281101561120e576040805162461bcd60e51b815260206004820152601460248201527364732d6d6174682d6164642d6f766572666c6f7760601b604482015290519081900360640190fd5b6000806000614a3b858561489c565b509050600080614a4c888888613931565b6001600160a01b0316630902f1ac6040518163ffffffff1660e01b815260040160606040518083038186803b158015614a8457600080fd5b505afa158015614a98573d6000803e3d6000fd5b505050506040513d6060811015614aae57600080fd5b5080516020909101516001600160701b0391821693501690506001600160a01b0387811690841614614ae1578082614ae4565b81815b9099909850965050505050505056fe556e697377617056324c6962726172793a20494e53554646494349454e545f4f55545055545f414d4f554e54556e697377617056324c6962726172793a204944454e544943414c5f414444524553534553556e69737761705632526f757465723a20494e53554646494349454e545f425f414d4f554e54556e697377617056324c6962726172793a20494e53554646494349454e545f4c4951554944495459556e697377617056324c6962726172793a20494e53554646494349454e545f414d4f554e54556e69737761705632526f757465723a204558434553534956455f494e5055545f414d4f554e54556e69737761705632526f757465723a20494e56414c49445f50415448000000556e69737761705632526f757465723a20494e53554646494349454e545f415f414d4f554e545472616e7366657248656c7065723a204554485f5452414e534645525f4641494c4544556e69737761705632526f757465723a20494e53554646494349454e545f4f55545055545f414d4f554e545472616e7366657248656c7065723a205452414e534645525f46524f4d5f4641494c4544556e697377617056324c6962726172793a20494e53554646494349454e545f494e5055545f414d4f554e54556e69737761705632526f757465723a20455850495245440000000000000000a2646970667358221220c51a8e945e635525e94c5d6da12c2e0332599c3781d27cc3ba01af0334b25e8a64736f6c634300060c0033",
  "immutableReferences": {
    "14560": [
      {
        "length": 32,
        "start": 3983
      },
      {
        "length": 32,
        "start": 4198
      },
      {
        "length": 32,
        "start": 4581
      },
      {
        "length": 32,
        "start": 4638
      },
      {
        "length": 32,
        "start": 5009
      },
      {
        "length": 32,
        "start": 5626
      },
      {
        "length": 32,
        "start": 6104
      },
      {
        "length": 32,
        "start": 6286
      },
      {
        "length": 32,
        "start": 6654
      },
      {
        "length": 32,
        "start": 8069
      },
      {
        "length": 32,
        "start": 8434
      },
      {
        "length": 32,
        "start": 8780
      },
      {
        "length": 32,
        "start": 9053
      },
      {
        "length": 32,
        "start": 10108
      },
      {
        "length": 32,
        "start": 10743
      },
      {
        "length": 32,
        "start": 11247
      },
      {
        "length": 32,
        "start": 11288
      },
      {
        "length": 32,
        "start": 11336
      },
      {
        "length": 32,
        "start": 11701
      },
      {
        "length": 32,
        "start": 12052
      },
      {
        "length": 32,
        "start": 12813
      },
      {
        "length": 32,
        "start": 13175
      },
      {
        "length": 32,
        "start": 15357
      },
      {
        "length": 32,
        "start": 15424
      },
      {
        "length": 32,
        "start": 16083
      },
      {
        "length": 32,
        "start": 16268
      },
      {
        "length": 32,
        "start": 16447
      },
      {
        "length": 32,
        "start": 16728
      },
      {
        "length": 32,
        "start": 17122
      },
      {
        "length": 32,
        "start": 17496
      },
      {
        "length": 32,
        "start": 18105
      }
    ],
    "14563": [
      {
        "length": 32,
        "start": 405
      },
      {
        "length": 32,
        "start": 3535
      },
      {
        "length": 32,
        "start": 3594
      },
      {
        "length": 32,
        "start": 3841
      },
      {
        "length": 32,
        "start": 4383
      },
      {
        "length": 32,
        "start": 4957
      },
      {
        "length": 32,
        "start": 5043
      },
      {
        "length": 32,
        "start": 5095
      },
      {
        "length": 32,
        "start": 5211
      },
      {
        "length": 32,
        "start": 5962
      },
      {
        "length": 32,
        "start": 6320
      },
      {
        "length": 32,
        "start": 7269
      },
      {
        "length": 32,
        "start": 7488
      },
      {
        "length": 32,
        "start": 7706
      },
      {
        "length": 32,
        "start": 7922
      },
      {
        "length": 32,
        "start": 8248
      },
      {
        "length": 32,
        "start": 8384
      },
      {
        "length": 32,
        "start": 9276
      },
      {
        "length": 32,
        "start": 9399
      },
      {
        "length": 32,
        "start": 9577
      },
      {
        "length": 32,
        "start": 9793
      },
      {
        "length": 32,
        "start": 9942
      },
      {
        "length": 32,
        "start": 10058
      },
      {
        "length": 32,
        "start": 11370
      },
      {
        "length": 32,
        "start": 12000
      },
      {
        "length": 32,
        "start": 12086
      },
      {
        "length": 32,
        "start": 12138
      },
      {
        "length": 32,
        "start": 12254
      },
      {
        "length": 32,
        "start": 12666
      },
      {
        "length": 32,
        "start": 12989
      },
      {
        "length": 32,
        "start": 13125
      }
    ]
  },
  "source": "pragma solidity =0.6.12;\n\n\nimport './libraries/UniswapV2Library.sol';\nimport './libraries/SafeMath.sol';\nimport './libraries/TransferHelper.sol';\nimport './interfaces/IUniswapV2Router03.sol';\nimport './interfaces/IUniswapV2Factory.sol';\nimport './interfaces/IUniswapV2Reporting.sol';\nimport './interfaces/IERC20.sol';\nimport './interfaces/IWETH.sol';\n\ncontract UniswapV2Router03 is IUniswapV2Router03 {\n    using SafeMathUniswap for uint;\n\n    address public immutable override factory;\n    address public immutable override WETH;\n\n    modifier ensure(uint deadline) {\n        require(deadline >= block.timestamp, 'UniswapV2Router: EXPIRED');\n        _;\n    }\n\n    constructor(address _factory, address _WETH) public {\n        factory = _factory;\n        WETH = _WETH;\n    }\n\n    receive() external payable {\n        assert(msg.sender == WETH); // only accept ETH via fallback from the WETH contract\n    }\n\n    // **** ADD LIQUIDITY ****\n    function _reportAddLiquidity(address _user, address _tokenA, uint256 _amountA, address _tokenB, uint256 _amountB, bytes32 _referrer) internal virtual {\n        address reportingTo = IUniswapV2Factory(factory).reportingTo();\n        if (reportingTo != address(0) && _user != address(this)) {\n          IUniswapV2Reporting(reportingTo).addedLiquidity(_user, _tokenA, _amountA, _tokenB, _amountB, _referrer);\n        }\n    }\n    function _reportAddLiquidityETH(address _user, address _token, uint256 _amount, uint256 _amountETH, bytes32 _referrer) internal virtual {\n        address reportingTo = IUniswapV2Factory(factory).reportingTo();\n        if (reportingTo != address(0) && _user != address(this)) {\n          IUniswapV2Reporting(reportingTo).addedLiquidityETH(_user, _token, _amount, _amountETH, _referrer);\n        }\n    }\n    function _addLiquidity(\n        address tokenA,\n        address tokenB,\n        uint amountADesired,\n        uint amountBDesired,\n        uint amountAMin,\n        uint amountBMin\n    ) internal virtual returns (uint amountA, uint amountB) {\n        // create the pair if it doesn't exist yet\n        if (IUniswapV2Factory(factory).getPair(tokenA, tokenB) == address(0)) {\n            IUniswapV2Factory(factory).createPair(tokenA, tokenB);\n        }\n        (uint reserveA, uint reserveB) = UniswapV2Library.getReserves(factory, tokenA, tokenB);\n        if (reserveA == 0 && reserveB == 0) {\n            (amountA, amountB) = (amountADesired, amountBDesired);\n        } else {\n            uint amountBOptimal = UniswapV2Library.quote(amountADesired, reserveA, reserveB);\n            if (amountBOptimal <= amountBDesired) {\n                require(amountBOptimal >= amountBMin, 'UniswapV2Router: INSUFFICIENT_B_AMOUNT');\n                (amountA, amountB) = (amountADesired, amountBOptimal);\n            } else {\n                uint amountAOptimal = UniswapV2Library.quote(amountBDesired, reserveB, reserveA);\n                assert(amountAOptimal <= amountADesired);\n                require(amountAOptimal >= amountAMin, 'UniswapV2Router: INSUFFICIENT_A_AMOUNT');\n                (amountA, amountB) = (amountAOptimal, amountBDesired);\n            }\n        }\n    }\n    function addLiquidity(\n        address tokenA,\n        address tokenB,\n        uint amountADesired,\n        uint amountBDesired,\n        uint amountAMin,\n        uint amountBMin,\n        address to,\n        uint deadline\n    ) external virtual override ensure(deadline) returns (uint amountA, uint amountB, uint liquidity) {\n        (amountA, amountB) = _addLiquidity(tokenA, tokenB, amountADesired, amountBDesired, amountAMin, amountBMin);\n        address pair = UniswapV2Library.pairFor(factory, tokenA, tokenB);\n        TransferHelper.safeTransferFrom(tokenA, msg.sender, pair, amountA);\n        TransferHelper.safeTransferFrom(tokenB, msg.sender, pair, amountB);\n        liquidity = IUniswapV2Pair(pair).mint(to);\n        _reportAddLiquidity(to, tokenA, amountA, tokenB, amountB, 0);\n    }\n    function addLiquidityETH(\n        address token,\n        uint amountTokenDesired,\n        uint amountTokenMin,\n        uint amountETHMin,\n        address to,\n        uint deadline\n    ) external virtual override payable ensure(deadline) returns (uint amountToken, uint amountETH, uint liquidity) {\n        (amountToken, amountETH) = _addLiquidity(\n            token,\n            WETH,\n            amountTokenDesired,\n            msg.value,\n            amountTokenMin,\n            amountETHMin\n        );\n        address pair = UniswapV2Library.pairFor(factory, token, WETH);\n        TransferHelper.safeTransferFrom(token, msg.sender, pair, amountToken);\n        IWETH(WETH).deposit{value: amountETH}();\n        assert(IWETH(WETH).transfer(pair, amountETH));\n        liquidity = IUniswapV2Pair(pair).mint(to);\n        // refund dust eth, if any\n        if (msg.value > amountETH) TransferHelper.safeTransferETH(msg.sender, msg.value - amountETH);\n        _reportAddLiquidityETH(to, token, amountToken, amountETH, 0);\n    }\n    function addLiquidityWithReferrer(\n        address tokenA,\n        address tokenB,\n        uint amountADesired,\n        uint amountBDesired,\n        uint amountAMin,\n        uint amountBMin,\n        address to,\n        bytes32 referrer,\n        uint deadline\n    ) external virtual override ensure(deadline) returns (uint amountA, uint amountB, uint liquidity) {\n        (amountA, amountB) = _addLiquidity(tokenA, tokenB, amountADesired, amountBDesired, amountAMin, amountBMin);\n        { // block to avoid stack-too-deep\n        address pair = UniswapV2Library.pairFor(factory, tokenA, tokenB);\n        TransferHelper.safeTransferFrom(tokenA, msg.sender, pair, amountA);\n        TransferHelper.safeTransferFrom(tokenB, msg.sender, pair, amountB);\n        liquidity = IUniswapV2Pair(pair).mint(to);\n        }\n        _reportAddLiquidity(to, tokenA, amountA, tokenB, amountB, referrer);\n    }\n    function addLiquidityETHWithReferrer(\n        address token,\n        uint amountTokenDesired,\n        uint amountTokenMin,\n        uint amountETHMin,\n        address to,\n        bytes32 referrer,\n        uint deadline\n    ) external virtual override payable ensure(deadline) returns (uint amountToken, uint amountETH, uint liquidity) {\n        (amountToken, amountETH) = _addLiquidity(\n            token,\n            WETH,\n            amountTokenDesired,\n            msg.value,\n            amountTokenMin,\n            amountETHMin\n        );\n        address pair = UniswapV2Library.pairFor(factory, token, WETH);\n        TransferHelper.safeTransferFrom(token, msg.sender, pair, amountToken);\n        IWETH(WETH).deposit{value: amountETH}();\n        assert(IWETH(WETH).transfer(pair, amountETH));\n        liquidity = IUniswapV2Pair(pair).mint(to);\n        // refund dust eth, if any\n        if (msg.value > amountETH) TransferHelper.safeTransferETH(msg.sender, msg.value - amountETH);\n        _reportAddLiquidityETH(to, token, amountToken, amountETH, referrer);\n    }\n\n    // **** REMOVE LIQUIDITY ****\n    function removeLiquidity(\n        address tokenA,\n        address tokenB,\n        uint liquidity,\n        uint amountAMin,\n        uint amountBMin,\n        address to,\n        uint deadline\n    ) public virtual override ensure(deadline) returns (uint amountA, uint amountB) {\n        { // block to avoid stack-too-deep\n        address pair = UniswapV2Library.pairFor(factory, tokenA, tokenB);\n        IUniswapV2Pair(pair).transferFrom(msg.sender, pair, liquidity); // send liquidity to pair\n        (uint amount0, uint amount1) = IUniswapV2Pair(pair).burn(to);\n        (address token0,) = UniswapV2Library.sortTokens(tokenA, tokenB);\n        (amountA, amountB) = tokenA == token0 ? (amount0, amount1) : (amount1, amount0);\n        require(amountA >= amountAMin, 'UniswapV2Router: INSUFFICIENT_A_AMOUNT');\n        require(amountB >= amountBMin, 'UniswapV2Router: INSUFFICIENT_B_AMOUNT');\n        }\n    }\n    function removeLiquidityETH(\n        address token,\n        uint liquidity,\n        uint amountTokenMin,\n        uint amountETHMin,\n        address to,\n        uint deadline\n    ) public virtual override ensure(deadline) returns (uint amountToken, uint amountETH) {\n        (amountToken, amountETH) = removeLiquidity(\n            token,\n            WETH,\n            liquidity,\n            amountTokenMin,\n            amountETHMin,\n            address(this),\n            deadline\n        );\n        TransferHelper.safeTransfer(token, to, amountToken);\n        IWETH(WETH).withdraw(amountETH);\n        TransferHelper.safeTransferETH(to, amountETH);\n    }\n    function removeLiquidityWithPermit(\n        address tokenA,\n        address tokenB,\n        uint liquidity,\n        uint amountAMin,\n        uint amountBMin,\n        address to,\n        uint deadline,\n        bool approveMax, uint8 v, bytes32 r, bytes32 s\n    ) external virtual override returns (uint amountA, uint amountB) {\n        address pair = UniswapV2Library.pairFor(factory, tokenA, tokenB);\n        uint value = approveMax ? uint(-1) : liquidity;\n        IUniswapV2Pair(pair).permit(msg.sender, address(this), value, deadline, v, r, s);\n        (amountA, amountB) = removeLiquidity(tokenA, tokenB, liquidity, amountAMin, amountBMin, to, deadline);\n    }\n    function removeLiquidityETHWithPermit(\n        address token,\n        uint liquidity,\n        uint amountTokenMin,\n        uint amountETHMin,\n        address to,\n        uint deadline,\n        bool approveMax, uint8 v, bytes32 r, bytes32 s\n    ) external virtual override returns (uint amountToken, uint amountETH) {\n        address pair = UniswapV2Library.pairFor(factory, token, WETH);\n        uint value = approveMax ? uint(-1) : liquidity;\n        IUniswapV2Pair(pair).permit(msg.sender, address(this), value, deadline, v, r, s);\n        (amountToken, amountETH) = removeLiquidityETH(token, liquidity, amountTokenMin, amountETHMin, to, deadline);\n    }\n\n    // **** REMOVE LIQUIDITY (supporting fee-on-transfer tokens) ****\n    function removeLiquidityETHSupportingFeeOnTransferTokens(\n        address token,\n        uint liquidity,\n        uint amountTokenMin,\n        uint amountETHMin,\n        address to,\n        uint deadline\n    ) public virtual override ensure(deadline) returns (uint amountETH) {\n        (, amountETH) = removeLiquidity(\n            token,\n            WETH,\n            liquidity,\n            amountTokenMin,\n            amountETHMin,\n            address(this),\n            deadline\n        );  // does NOT report, since the transfer is to address(this)\n        uint amountToken = IERC20Uniswap(token).balanceOf(address(this));\n        TransferHelper.safeTransfer(token, to, amountToken);\n        IWETH(WETH).withdraw(amountETH);\n        TransferHelper.safeTransferETH(to, amountETH);\n    }\n    function removeLiquidityETHWithPermitSupportingFeeOnTransferTokens(\n        address token,\n        uint liquidity,\n        uint amountTokenMin,\n        uint amountETHMin,\n        address to,\n        uint deadline,\n        bool approveMax, uint8 v, bytes32 r, bytes32 s\n    ) external virtual override returns (uint amountETH) {\n        address pair = UniswapV2Library.pairFor(factory, token, WETH);\n        uint value = approveMax ? uint(-1) : liquidity;\n        IUniswapV2Pair(pair).permit(msg.sender, address(this), value, deadline, v, r, s);\n        amountETH = removeLiquidityETHSupportingFeeOnTransferTokens(\n            token, liquidity, amountTokenMin, amountETHMin, to, deadline\n        );\n    }\n\n    // **** SWAP ****\n    // requires the initial amount to have already been sent to the first pair.\n    function _swap(uint[] memory amounts, address[] memory path, address _to) internal virtual {\n        for (uint i; i < path.length - 1; i++) {\n            (address input, address output) = (path[i], path[i + 1]);\n            (address token0,) = UniswapV2Library.sortTokens(input, output);\n            uint amountOut = amounts[i + 1];\n            (uint amount0Out, uint amount1Out) = input == token0 ? (uint(0), amountOut) : (amountOut, uint(0));\n            address to = i < path.length - 2 ? UniswapV2Library.pairFor(factory, output, path[i + 2]) : _to;\n            IUniswapV2Pair(UniswapV2Library.pairFor(factory, input, output)).swap(\n                amount0Out, amount1Out, to, new bytes(0)\n            );\n        }\n    }\n    function swapExactTokensForTokens(\n        uint amountIn,\n        uint amountOutMin,\n        address[] calldata path,\n        address to,\n        uint deadline\n    ) external virtual override ensure(deadline) returns (uint[] memory amounts) {\n        amounts = UniswapV2Library.getAmountsOut(factory, amountIn, path);\n        require(amounts[amounts.length - 1] >= amountOutMin, 'UniswapV2Router: INSUFFICIENT_OUTPUT_AMOUNT');\n        TransferHelper.safeTransferFrom(\n            path[0], msg.sender, UniswapV2Library.pairFor(factory, path[0], path[1]), amounts[0]\n        );\n        _swap(amounts, path, to);\n    }\n    function swapTokensForExactTokens(\n        uint amountOut,\n        uint amountInMax,\n        address[] calldata path,\n        address to,\n        uint deadline\n    ) external virtual override ensure(deadline) returns (uint[] memory amounts) {\n        amounts = UniswapV2Library.getAmountsIn(factory, amountOut, path);\n        require(amounts[0] <= amountInMax, 'UniswapV2Router: EXCESSIVE_INPUT_AMOUNT');\n        TransferHelper.safeTransferFrom(\n            path[0], msg.sender, UniswapV2Library.pairFor(factory, path[0], path[1]), amounts[0]\n        );\n        _swap(amounts, path, to);\n    }\n    function swapExactETHForTokens(uint amountOutMin, address[] calldata path, address to, uint deadline)\n        external\n        virtual\n        override\n        payable\n        ensure(deadline)\n        returns (uint[] memory amounts)\n    {\n        require(path[0] == WETH, 'UniswapV2Router: INVALID_PATH');\n        amounts = UniswapV2Library.getAmountsOut(factory, msg.value, path);\n        require(amounts[amounts.length - 1] >= amountOutMin, 'UniswapV2Router: INSUFFICIENT_OUTPUT_AMOUNT');\n        IWETH(WETH).deposit{value: amounts[0]}();\n        assert(IWETH(WETH).transfer(UniswapV2Library.pairFor(factory, path[0], path[1]), amounts[0]));\n        _swap(amounts, path, to);\n    }\n    function swapTokensForExactETH(uint amountOut, uint amountInMax, address[] calldata path, address to, uint deadline)\n        external\n        virtual\n        override\n        ensure(deadline)\n        returns (uint[] memory amounts)\n    {\n        require(path[path.length - 1] == WETH, 'UniswapV2Router: INVALID_PATH');\n        amounts = UniswapV2Library.getAmountsIn(factory, amountOut, path);\n        require(amounts[0] <= amountInMax, 'UniswapV2Router: EXCESSIVE_INPUT_AMOUNT');\n        TransferHelper.safeTransferFrom(\n            path[0], msg.sender, UniswapV2Library.pairFor(factory, path[0], path[1]), amounts[0]\n        );\n        _swap(amounts, path, address(this));\n        IWETH(WETH).withdraw(amounts[amounts.length - 1]);\n        TransferHelper.safeTransferETH(to, amounts[amounts.length - 1]);\n    }\n    function swapExactTokensForETH(uint amountIn, uint amountOutMin, address[] calldata path, address to, uint deadline)\n        external\n        virtual\n        override\n        ensure(deadline)\n        returns (uint[] memory amounts)\n    {\n        require(path[path.length - 1] == WETH, 'UniswapV2Router: INVALID_PATH');\n        amounts = UniswapV2Library.getAmountsOut(factory, amountIn, path);\n        require(amounts[amounts.length - 1] >= amountOutMin, 'UniswapV2Router: INSUFFICIENT_OUTPUT_AMOUNT');\n        TransferHelper.safeTransferFrom(\n            path[0], msg.sender, UniswapV2Library.pairFor(factory, path[0], path[1]), amounts[0]\n        );\n        _swap(amounts, path, address(this));\n        IWETH(WETH).withdraw(amounts[amounts.length - 1]);\n        TransferHelper.safeTransferETH(to, amounts[amounts.length - 1]);\n    }\n    function swapETHForExactTokens(uint amountOut, address[] calldata path, address to, uint deadline)\n        external\n        virtual\n        override\n        payable\n        ensure(deadline)\n        returns (uint[] memory amounts)\n    {\n        require(path[0] == WETH, 'UniswapV2Router: INVALID_PATH');\n        amounts = UniswapV2Library.getAmountsIn(factory, amountOut, path);\n        require(amounts[0] <= msg.value, 'UniswapV2Router: EXCESSIVE_INPUT_AMOUNT');\n        IWETH(WETH).deposit{value: amounts[0]}();\n        assert(IWETH(WETH).transfer(UniswapV2Library.pairFor(factory, path[0], path[1]), amounts[0]));\n        _swap(amounts, path, to);\n        // refund dust eth, if any\n        if (msg.value > amounts[0]) TransferHelper.safeTransferETH(msg.sender, msg.value - amounts[0]);\n    }\n\n    // **** SWAP (supporting fee-on-transfer tokens) ****\n    // requires the initial amount to have already been sent to the first pair\n    function _swapSupportingFeeOnTransferTokens(address[] memory path, address _to) internal virtual {\n        for (uint i; i < path.length - 1; i++) {\n            (address input, address output) = (path[i], path[i + 1]);\n            (address token0,) = UniswapV2Library.sortTokens(input, output);\n            IUniswapV2Pair pair = IUniswapV2Pair(UniswapV2Library.pairFor(factory, input, output));\n            uint amountInput;\n            uint amountOutput;\n            { // scope to avoid stack too deep errors\n            (uint reserve0, uint reserve1,) = pair.getReserves();\n            (uint reserveInput, uint reserveOutput) = input == token0 ? (reserve0, reserve1) : (reserve1, reserve0);\n            amountInput = IERC20Uniswap(input).balanceOf(address(pair)).sub(reserveInput);\n            amountOutput = UniswapV2Library.getAmountOut(amountInput, reserveInput, reserveOutput);\n            }\n            (uint amount0Out, uint amount1Out) = input == token0 ? (uint(0), amountOutput) : (amountOutput, uint(0));\n            address to = i < path.length - 2 ? UniswapV2Library.pairFor(factory, output, path[i + 2]) : _to;\n            pair.swap(amount0Out, amount1Out, to, new bytes(0));\n        }\n    }\n    function swapExactTokensForTokensSupportingFeeOnTransferTokens(\n        uint amountIn,\n        uint amountOutMin,\n        address[] calldata path,\n        address to,\n        uint deadline\n    ) external virtual override ensure(deadline) {\n        TransferHelper.safeTransferFrom(\n            path[0], msg.sender, UniswapV2Library.pairFor(factory, path[0], path[1]), amountIn\n        );\n        uint balanceBefore = IERC20Uniswap(path[path.length - 1]).balanceOf(to);\n        _swapSupportingFeeOnTransferTokens(path, to);\n        uint amountOut = IERC20Uniswap(path[path.length - 1]).balanceOf(to).sub(balanceBefore);\n        require(\n            amountOut >= amountOutMin,\n            'UniswapV2Router: INSUFFICIENT_OUTPUT_AMOUNT'\n        );\n    }\n    function swapExactETHForTokensSupportingFeeOnTransferTokens(\n        uint amountOutMin,\n        address[] calldata path,\n        address to,\n        uint deadline\n    )\n        external\n        virtual\n        override\n        payable\n        ensure(deadline)\n    {\n        require(path[0] == WETH, 'UniswapV2Router: INVALID_PATH');\n        uint amountIn = msg.value;\n        IWETH(WETH).deposit{value: amountIn}();\n        assert(IWETH(WETH).transfer(UniswapV2Library.pairFor(factory, path[0], path[1]), amountIn));\n        uint balanceBefore = IERC20Uniswap(path[path.length - 1]).balanceOf(to);\n        _swapSupportingFeeOnTransferTokens(path, to);\n        require(\n            IERC20Uniswap(path[path.length - 1]).balanceOf(to).sub(balanceBefore) >= amountOutMin,\n            'UniswapV2Router: INSUFFICIENT_OUTPUT_AMOUNT'\n        );\n    }\n    function swapExactTokensForETHSupportingFeeOnTransferTokens(\n        uint amountIn,\n        uint amountOutMin,\n        address[] calldata path,\n        address to,\n        uint deadline\n    )\n        external\n        virtual\n        override\n        ensure(deadline)\n    {\n        require(path[path.length - 1] == WETH, 'UniswapV2Router: INVALID_PATH');\n        TransferHelper.safeTransferFrom(\n            path[0], msg.sender, UniswapV2Library.pairFor(factory, path[0], path[1]), amountIn\n        );\n        _swapSupportingFeeOnTransferTokens(path, address(this));\n        uint amountOut = IERC20Uniswap(WETH).balanceOf(address(this));\n        require(amountOut >= amountOutMin, 'UniswapV2Router: INSUFFICIENT_OUTPUT_AMOUNT');\n        IWETH(WETH).withdraw(amountOut);\n        TransferHelper.safeTransferETH(to, amountOut);\n    }\n\n    // **** LIBRARY FUNCTIONS ****\n    function quote(uint amountA, uint reserveA, uint reserveB) public pure virtual override returns (uint amountB) {\n        return UniswapV2Library.quote(amountA, reserveA, reserveB);\n    }\n\n    function getAmountOut(uint amountIn, uint reserveIn, uint reserveOut)\n        public\n        pure\n        virtual\n        override\n        returns (uint amountOut)\n    {\n        return UniswapV2Library.getAmountOut(amountIn, reserveIn, reserveOut);\n    }\n\n    function getAmountIn(uint amountOut, uint reserveIn, uint reserveOut)\n        public\n        pure\n        virtual\n        override\n        returns (uint amountIn)\n    {\n        return UniswapV2Library.getAmountIn(amountOut, reserveIn, reserveOut);\n    }\n\n    function getAmountsOut(uint amountIn, address[] memory path)\n        public\n        view\n        virtual\n        override\n        returns (uint[] memory amounts)\n    {\n        return UniswapV2Library.getAmountsOut(factory, amountIn, path);\n    }\n\n    function getAmountsIn(uint amountOut, address[] memory path)\n        public\n        view\n        virtual\n        override\n        returns (uint[] memory amounts)\n    {\n        return UniswapV2Library.getAmountsIn(factory, amountOut, path);\n    }\n}\n",
  "sourcePath": "/Users/jake/Documents/Development/Freelance/CHKN/Git/chkn.swap/contracts/uniswapv2/UniswapV2Router03.sol",
  "compiler": {
    "name": "solc",
    "version": "0.6.12+commit.27d51765.Emscripten.clang"
  },
  "schemaVersion": "3.2.4",
  "updatedAt": "2020-10-11T03:48:05.053Z",
  "networkType": "ethereum",
  "devdoc": {
    "kind": "dev",
    "methods": {},
    "version": 1
  },
  "userdoc": {
    "kind": "user",
    "methods": {},
    "version": 1
  }
}